{
  "contractName": "Lottery",
  "abi": [
    {
      "inputs": [],
      "stateMutability": "nonpayable",
      "type": "constructor"
    },
    {
      "inputs": [],
      "name": "manager",
      "outputs": [
        {
          "internalType": "address",
          "name": "",
          "type": "address"
        }
      ],
      "stateMutability": "view",
      "type": "function",
      "constant": true
    },
    {
      "inputs": [
        {
          "internalType": "uint256",
          "name": "",
          "type": "uint256"
        }
      ],
      "name": "users",
      "outputs": [
        {
          "internalType": "address payable",
          "name": "",
          "type": "address"
        }
      ],
      "stateMutability": "view",
      "type": "function",
      "constant": true
    },
    {
      "inputs": [],
      "name": "winner",
      "outputs": [
        {
          "internalType": "address payable",
          "name": "",
          "type": "address"
        }
      ],
      "stateMutability": "view",
      "type": "function",
      "constant": true
    },
    {
      "stateMutability": "payable",
      "type": "receive",
      "payable": true
    },
    {
      "inputs": [],
      "name": "getBalance",
      "outputs": [
        {
          "internalType": "uint256",
          "name": "",
          "type": "uint256"
        }
      ],
      "stateMutability": "view",
      "type": "function",
      "constant": true
    },
    {
      "inputs": [],
      "name": "selectWinner",
      "outputs": [],
      "stateMutability": "nonpayable",
      "type": "function"
    },
    {
      "inputs": [],
      "name": "allUsers",
      "outputs": [
        {
          "internalType": "address payable[]",
          "name": "",
          "type": "address[]"
        }
      ],
      "stateMutability": "view",
      "type": "function",
      "constant": true
    }
  ],
  "bytecode": "0x608060405234801561001057600080fd5b50336000806101000a81548173ffffffffffffffffffffffffffffffffffffffff021916908373ffffffffffffffffffffffffffffffffffffffff160217905550610bc3806100606000396000f3fe6080604052600436106100595760003560e01c806312065fe01461011257806333a99e041461013d578063365b98b214610154578063481c6a75146101915780634918600a146101bc578063dfbf53ae146101e75761010d565b3661010d57670de0b6b3a764000034146100a8576040517f08c379a000000000000000000000000000000000000000000000000000000000815260040161009f90610749565b60405180910390fd5b6001339080600181540180825580915050600190039060005260206000200160009091909190916101000a81548173ffffffffffffffffffffffffffffffffffffffff021916908373ffffffffffffffffffffffffffffffffffffffff160217905550005b600080fd5b34801561011e57600080fd5b50610127610212565b6040516101349190610782565b60405180910390f35b34801561014957600080fd5b506101526102a9565b005b34801561016057600080fd5b5061017b600480360381019061017691906107ce565b6104f4565b604051610188919061083c565b60405180910390f35b34801561019d57600080fd5b506101a6610533565b6040516101b39190610878565b60405180910390f35b3480156101c857600080fd5b506101d1610557565b6040516101de9190610951565b60405180910390f35b3480156101f357600080fd5b506101fc6105e5565b604051610209919061083c565b60405180910390f35b60008060009054906101000a900473ffffffffffffffffffffffffffffffffffffffff1673ffffffffffffffffffffffffffffffffffffffff163373ffffffffffffffffffffffffffffffffffffffff16146102a3576040517f08c379a000000000000000000000000000000000000000000000000000000000815260040161029a906109bf565b60405180910390fd5b47905090565b60008054906101000a900473ffffffffffffffffffffffffffffffffffffffff1673ffffffffffffffffffffffffffffffffffffffff163373ffffffffffffffffffffffffffffffffffffffff1614610337576040517f08c379a000000000000000000000000000000000000000000000000000000000815260040161032e906109bf565b60405180910390fd5b60036001805490501015610380576040517f08c379a000000000000000000000000000000000000000000000000000000000815260040161037790610a51565b60405180910390fd5b600061038a61060b565b905060006001805490508261039f9190610aa0565b9050600181815481106103b5576103b4610ad1565b5b9060005260206000200160009054906101000a900473ffffffffffffffffffffffffffffffffffffffff16600260006101000a81548173ffffffffffffffffffffffffffffffffffffffff021916908373ffffffffffffffffffffffffffffffffffffffff160217905550600260009054906101000a900473ffffffffffffffffffffffffffffffffffffffff1673ffffffffffffffffffffffffffffffffffffffff166108fc610464610212565b9081150290604051600060405180830381858888f1935050505015801561048f573d6000803e3d6000fd5b50600067ffffffffffffffff8111156104ab576104aa610b00565b5b6040519080825280602002602001820160405280156104d95781602001602082028036833780820191505090505b50600190805190602001906104ef929190610645565b505050565b6001818154811061050457600080fd5b906000526020600020016000915054906101000a900473ffffffffffffffffffffffffffffffffffffffff1681565b60008054906101000a900473ffffffffffffffffffffffffffffffffffffffff1681565b606060018054806020026020016040519081016040528092919081815260200182805480156105db57602002820191906000526020600020905b8160009054906101000a900473ffffffffffffffffffffffffffffffffffffffff1673ffffffffffffffffffffffffffffffffffffffff1681526020019060010190808311610591575b5050505050905090565b600260009054906101000a900473ffffffffffffffffffffffffffffffffffffffff1681565b6000444260018054905060405160200161062793929190610b50565b6040516020818303038152906040528051906020012060001c905090565b8280548282559060005260206000209081019282156106be579160200282015b828111156106bd5782518260006101000a81548173ffffffffffffffffffffffffffffffffffffffff021916908373ffffffffffffffffffffffffffffffffffffffff16021790555091602001919060010190610665565b5b5090506106cb91906106cf565b5090565b5b808211156106e85760008160009055506001016106d0565b5090565b600082825260208201905092915050565b7f506c65617365207061792031206574686572206f6e6c79000000000000000000600082015250565b60006107336017836106ec565b915061073e826106fd565b602082019050919050565b6000602082019050818103600083015261076281610726565b9050919050565b6000819050919050565b61077c81610769565b82525050565b60006020820190506107976000830184610773565b92915050565b600080fd5b6107ab81610769565b81146107b657600080fd5b50565b6000813590506107c8816107a2565b92915050565b6000602082840312156107e4576107e361079d565b5b60006107f2848285016107b9565b91505092915050565b600073ffffffffffffffffffffffffffffffffffffffff82169050919050565b6000610826826107fb565b9050919050565b6108368161081b565b82525050565b6000602082019050610851600083018461082d565b92915050565b6000610862826107fb565b9050919050565b61087281610857565b82525050565b600060208201905061088d6000830184610869565b92915050565b600081519050919050565b600082825260208201905092915050565b6000819050602082019050919050565b6108c88161081b565b82525050565b60006108da83836108bf565b60208301905092915050565b6000602082019050919050565b60006108fe82610893565b610908818561089e565b9350610913836108af565b8060005b8381101561094457815161092b88826108ce565b9750610936836108e6565b925050600181019050610917565b5085935050505092915050565b6000602082019050818103600083015261096b81846108f3565b905092915050565b7f596f7520617265206e6f74206d616e6e61676572000000000000000000000000600082015250565b60006109a96014836106ec565b91506109b482610973565b602082019050919050565b600060208201905081810360008301526109d88161099c565b9050919050565b7f41746c656173742033207573657220706172746963697061746520696e20746860008201527f6973206c6f747465727900000000000000000000000000000000000000000000602082015250565b6000610a3b602a836106ec565b9150610a46826109df565b604082019050919050565b60006020820190508181036000830152610a6a81610a2e565b9050919050565b7f4e487b7100000000000000000000000000000000000000000000000000000000600052601260045260246000fd5b6000610aab82610769565b9150610ab683610769565b925082610ac657610ac5610a71565b5b828206905092915050565b7f4e487b7100000000000000000000000000000000000000000000000000000000600052603260045260246000fd5b7f4e487b7100000000000000000000000000000000000000000000000000000000600052604160045260246000fd5b6000819050919050565b610b4a610b4582610769565b610b2f565b82525050565b6000610b5c8286610b39565b602082019150610b6c8285610b39565b602082019150610b7c8284610b39565b60208201915081905094935050505056fea26469706673582212201fdad76267cba01e9d8b50edd964b41a63c22b5e855f39a7021906602bccad7164736f6c63430008090033",
  "immutableReferences": {},
  "source": "// SPDX-License-Identifier: GPL-3.0\r\npragma solidity >=0.4.16 <0.9.0;\r\n\r\ncontract Lottery {\r\n    address public manager;\r\n    address payable[] public users;\r\n    address payable public winner;\r\n\r\n    constructor() {\r\n        manager = msg.sender;\r\n    }\r\n\r\n    receive() external payable {\r\n        require(msg.value == 1 ether, \"Please pay 1 ether only\");\r\n        users.push(payable(msg.sender));\r\n    }\r\n\r\n    function getBalance() public view returns (uint) {\r\n        require(msg.sender == manager, \"You are not mannager\");\r\n        return address(this).balance;\r\n    }\r\n\r\n    function random() internal view returns (uint) {\r\n        return\r\n            uint(\r\n                keccak256(\r\n                    abi.encodePacked(\r\n                        block.difficulty,\r\n                        block.timestamp,\r\n                        users.length\r\n                    )\r\n                )\r\n            );\r\n    }\r\n\r\n    function selectWinner() public {\r\n        require(msg.sender == manager, \"You are not mannager\");\r\n        require(\r\n            users.length >= 3,\r\n            \"Atleast 3 user participate in this lottery\"\r\n        );\r\n        uint r = random();\r\n        uint index = r % users.length;\r\n        winner = users[index];\r\n        winner.transfer(getBalance());\r\n        users = new address payable[](0);\r\n    }\r\n\r\n    function allUsers() public view returns (address payable[] memory) {\r\n        return users;\r\n    }\r\n}\r\n",
  "sourcePath": "E:\\BlockChain\\DAPP\\lottery-app\\contracts\\Lottery.sol",
  "compiler": {
    "name": "solc",
    "version": "0.8.9+commit.e5eed63a.Emscripten.clang"
  },
  "schemaVersion": "3.4.14",
  "updatedAt": "2023-07-12T12:53:36.474Z",
  "networkType": "ethereum",
  "devdoc": {
    "kind": "dev",
    "methods": {},
    "version": 1
  },
  "userdoc": {
    "kind": "user",
    "methods": {},
    "version": 1
  }
}